{
  "_format": "hh-sol-artifact-1",
  "contractName": "MyFirstContract",
  "sourceName": "contracts/MyFirstContract.sol",
  "abi": [
    {
      "inputs": [
        {
          "internalType": "string",
          "name": "_greetings",
          "type": "string"
        }
      ],
      "stateMutability": "nonpayable",
      "type": "constructor"
    },
    {
      "inputs": [],
      "name": "getNumber",
      "outputs": [
        {
          "internalType": "uint256",
          "name": "",
          "type": "uint256"
        }
      ],
      "stateMutability": "view",
      "type": "function"
    },
    {
      "inputs": [
        {
          "internalType": "uint256",
          "name": "_num",
          "type": "uint256"
        }
      ],
      "name": "setNumber",
      "outputs": [],
      "stateMutability": "nonpayable",
      "type": "function"
    }
  ],
  "bytecode": "0x608060405234801561001057600080fd5b506040516101e23803806101e283398101604081905261002f91610039565b5060008055610111565b6000602080838503121561004b578182fd5b82516001600160401b0380821115610061578384fd5b818501915085601f830112610074578384fd5b815181811115610086576100866100fb565b604051601f8201601f19168101850183811182821017156100a9576100a96100fb565b60405281815283820185018810156100bf578586fd5b8592505b818310156100e057838301850151818401860152918401916100c3565b818311156100f057858583830101525b979650505050505050565b634e487b7160e01b600052604160045260246000fd5b60c38061011f6000396000f3fe6080604052348015600f57600080fd5b506004361060325760003560e01c80633fb5c1cb146037578063f2c9ecd8146048575b600080fd5b60466042366004606d565b6062565b005b604e6067565b604051605991906084565b60405180910390f35b600055565b60005490565b600060208284031215607d578081fd5b5035919050565b9081526020019056fea2646970667358221220775f833d8ed1551764cab645a604576554f96ef64872fe1309a7d3e78499896764736f6c63430008000033",
  "linkReferences": {},
  "deployedLinkReferences": {}
}